{
  "_format": "hh-sol-artifact-1",
  "contractName": "Lottery",
  "sourceName": "contracts/Lottery.sol",
  "abi": [
    {
      "inputs": [],
      "stateMutability": "nonpayable",
      "type": "constructor"
    },
    {
      "inputs": [],
      "name": "AlreadyParticipating",
      "type": "error"
    },
    {
      "inputs": [],
      "name": "OnlyAdminHasAccess",
      "type": "error"
    },
    {
      "inputs": [],
      "name": "admin",
      "outputs": [
        {
          "internalType": "address",
          "name": "",
          "type": "address"
        }
      ],
      "stateMutability": "view",
      "type": "function"
    },
    {
      "inputs": [],
      "name": "getAllParticipants",
      "outputs": [
        {
          "internalType": "address payable[]",
          "name": "",
          "type": "address[]"
        }
      ],
      "stateMutability": "view",
      "type": "function"
    },
    {
      "inputs": [],
      "name": "getContractBalance",
      "outputs": [
        {
          "internalType": "uint256",
          "name": "",
          "type": "uint256"
        }
      ],
      "stateMutability": "view",
      "type": "function"
    },
    {
      "inputs": [
        {
          "internalType": "uint256",
          "name": "",
          "type": "uint256"
        }
      ],
      "name": "participants",
      "outputs": [
        {
          "internalType": "address payable",
          "name": "",
          "type": "address"
        }
      ],
      "stateMutability": "view",
      "type": "function"
    },
    {
      "inputs": [],
      "name": "participate",
      "outputs": [],
      "stateMutability": "payable",
      "type": "function"
    },
    {
      "inputs": [],
      "name": "participationFee",
      "outputs": [
        {
          "internalType": "uint256",
          "name": "",
          "type": "uint256"
        }
      ],
      "stateMutability": "view",
      "type": "function"
    },
    {
      "inputs": [],
      "name": "pickWinner",
      "outputs": [],
      "stateMutability": "nonpayable",
      "type": "function"
    },
    {
      "inputs": [],
      "name": "winner",
      "outputs": [
        {
          "internalType": "address payable",
          "name": "",
          "type": "address"
        }
      ],
      "stateMutability": "view",
      "type": "function"
    }
  ],
  "bytecode": "0x6080604052670de0b6b3a764000060045534801561001c57600080fd5b50336000806101000a81548173ffffffffffffffffffffffffffffffffffffffff021916908373ffffffffffffffffffffffffffffffffffffffff160217905550610c978061006c6000396000f3fe60806040526004361061007b5760003560e01c80639bb5ce301161004e5780639bb5ce301461012a578063d11711a214610155578063dfbf53ae1461015f578063f851a4401461018a5761007b565b8063195ec9ee1461008057806335c1d349146100ab5780635d495aea146100e85780636f9fb98a146100ff575b600080fd5b34801561008c57600080fd5b506100956101b5565b6040516100a291906108f6565b60405180910390f35b3480156100b757600080fd5b506100d260048036038101906100cd9190610953565b610243565b6040516100df919061098f565b60405180910390f35b3480156100f457600080fd5b506100fd610282565b005b34801561010b57600080fd5b506101146104c3565b60405161012191906109b9565b60405180910390f35b34801561013657600080fd5b5061013f610550565b60405161014c91906109b9565b60405180910390f35b61015d610556565b005b34801561016b57600080fd5b506101746106db565b604051610181919061098f565b60405180910390f35b34801561019657600080fd5b5061019f610701565b6040516101ac91906109f5565b60405180910390f35b6060600180548060200260200160405190810160405280929190818152602001828054801561023957602002820191906000526020600020905b8160009054906101000a900473ffffffffffffffffffffffffffffffffffffffff1673ffffffffffffffffffffffffffffffffffffffff16815260200190600101908083116101ef575b5050505050905090565b6001818154811061025357600080fd5b906000526020600020016000915054906101000a900473ffffffffffffffffffffffffffffffffffffffff1681565b3373ffffffffffffffffffffffffffffffffffffffff1660008054906101000a900473ffffffffffffffffffffffffffffffffffffffff1673ffffffffffffffffffffffffffffffffffffffff1614610307576040517fadc1759000000000000000000000000000000000000000000000000000000000815260040160405180910390fd5b60026001805490501161034f576040517f08c379a000000000000000000000000000000000000000000000000000000000815260040161034690610a93565b60405180910390fd5b6000610359610725565b905060006001805490508261036e9190610ae2565b90506001818154811061038457610383610b13565b5b9060005260206000200160009054906101000a900473ffffffffffffffffffffffffffffffffffffffff16600260006101000a81548173ffffffffffffffffffffffffffffffffffffffff021916908373ffffffffffffffffffffffffffffffffffffffff160217905550600260009054906101000a900473ffffffffffffffffffffffffffffffffffffffff1673ffffffffffffffffffffffffffffffffffffffff166108fc6104336104c3565b9081150290604051600060405180830381858888f1935050505015801561045e573d6000803e3d6000fd5b50600067ffffffffffffffff81111561047a57610479610b42565b5b6040519080825280602002602001820160405280156104a85781602001602082028036833780820191505090505b50600190805190602001906104be92919061075f565b505050565b60003373ffffffffffffffffffffffffffffffffffffffff1660008054906101000a900473ffffffffffffffffffffffffffffffffffffffff1673ffffffffffffffffffffffffffffffffffffffff161461054a576040517fadc1759000000000000000000000000000000000000000000000000000000000815260040160405180910390fd5b47905090565b60045481565b600360003373ffffffffffffffffffffffffffffffffffffffff1673ffffffffffffffffffffffffffffffffffffffff16815260200190815260200160002060009054906101000a900460ff16156105da576040517f7f7429a900000000000000000000000000000000000000000000000000000000815260040160405180910390fd5b600454341461061e576040517f08c379a000000000000000000000000000000000000000000000000000000000815260040161061590610be3565b60405180910390fd5b6001339080600181540180825580915050600190039060005260206000200160009091909190916101000a81548173ffffffffffffffffffffffffffffffffffffffff021916908373ffffffffffffffffffffffffffffffffffffffff1602179055506001600360003373ffffffffffffffffffffffffffffffffffffffff1673ffffffffffffffffffffffffffffffffffffffff16815260200190815260200160002060006101000a81548160ff021916908315150217905550565b600260009054906101000a900473ffffffffffffffffffffffffffffffffffffffff1681565b60008054906101000a900473ffffffffffffffffffffffffffffffffffffffff1681565b6000444260018054905060405160200161074193929190610c24565b6040516020818303038152906040528051906020012060001c905090565b8280548282559060005260206000209081019282156107d8579160200282015b828111156107d75782518260006101000a81548173ffffffffffffffffffffffffffffffffffffffff021916908373ffffffffffffffffffffffffffffffffffffffff1602179055509160200191906001019061077f565b5b5090506107e591906107e9565b5090565b5b808211156108025760008160009055506001016107ea565b5090565b600081519050919050565b600082825260208201905092915050565b6000819050602082019050919050565b600073ffffffffffffffffffffffffffffffffffffffff82169050919050565b600061085d82610832565b9050919050565b61086d81610852565b82525050565b600061087f8383610864565b60208301905092915050565b6000602082019050919050565b60006108a382610806565b6108ad8185610811565b93506108b883610822565b8060005b838110156108e95781516108d08882610873565b97506108db8361088b565b9250506001810190506108bc565b5085935050505092915050565b600060208201905081810360008301526109108184610898565b905092915050565b600080fd5b6000819050919050565b6109308161091d565b811461093b57600080fd5b50565b60008135905061094d81610927565b92915050565b60006020828403121561096957610968610918565b5b60006109778482850161093e565b91505092915050565b61098981610852565b82525050565b60006020820190506109a46000830184610980565b92915050565b6109b38161091d565b82525050565b60006020820190506109ce60008301846109aa565b92915050565b60006109df82610832565b9050919050565b6109ef816109d4565b82525050565b6000602082019050610a0a60008301846109e6565b92915050565b600082825260208201905092915050565b7f7061727469636970616e7473206d757374206265206d6f7265207468616e207460008201527f776f000000000000000000000000000000000000000000000000000000000000602082015250565b6000610a7d602283610a10565b9150610a8882610a21565b604082019050919050565b60006020820190508181036000830152610aac81610a70565b9050919050565b7f4e487b7100000000000000000000000000000000000000000000000000000000600052601260045260246000fd5b6000610aed8261091d565b9150610af88361091d565b925082610b0857610b07610ab3565b5b828206905092915050565b7f4e487b7100000000000000000000000000000000000000000000000000000000600052603260045260246000fd5b7f4e487b7100000000000000000000000000000000000000000000000000000000600052604160045260246000fd5b7f506c65617365207061792074686520726571756972656420706172746963697060008201527f6174696f6e206665652100000000000000000000000000000000000000000000602082015250565b6000610bcd602a83610a10565b9150610bd882610b71565b604082019050919050565b60006020820190508181036000830152610bfc81610bc0565b9050919050565b6000819050919050565b610c1e610c198261091d565b610c03565b82525050565b6000610c308286610c0d565b602082019150610c408285610c0d565b602082019150610c508284610c0d565b60208201915081905094935050505056fea26469706673582212201d3cae561c5e92732a86ca964fbc76f348104b46972edeb24f385d322757645864736f6c63430008180033",
  "linkReferences": {},
  "deployedLinkReferences": {}
}